:030000000208AF44
:0C08AF00787FE4F6D8FD7581460208F65B
:100776002020202053455454494E47532020202002
:1007860000543A2532642020523A2532642020470C
:100796003A253264002532640020202020202000E3
:1007A60054554D424C450020204649524500204DA7
:1007B6004F544F52002020204741530020202057FD
:1007C600656C636F6D6520746F20202000202020EB
:1007D600202020534241532020202020200020208A
:1007E6002020202020202020202020202020002A19
:1007F600204F4E2020202020202573002A4F4646D9
:0D0806002020202020202020202020200065
:100AE700C109C10A063F0028003C0005C10B023BB3
:0D0AF700001B02450026023D000001220008
:100A1D00C2B6C2B58F807F027E00120A30D2B57F7A
:030A2D00027E0046
:100A3000D3EF9400EE940040147D737C00ED1D70A4
:0D0A4000011CED4C70F7EF1F70E61E80E307
:010A4D002286
:040B6400D2937F01A8
:030B6800DFFE228B
:080B5400C2B7120A1DC2B5224E
:080B5C00D2B7120A1DC2B52236
:100B37007F38120B547F0C120B547F06120B547F15
:040B470001020B5448
:040B05007D01E4FF8B
:100B0900AE07ED7005EE24808008ED64017007EEF4
:070B190024C0FF120B54225F
:060A4E007B007A00792A0A
:100A54008B088A09890AAB08AA09A90A12056760E2
:100A640013050AE50A7002050914F9120567FF1255
:050A74000B5C80E22292
:090B4B00209002B20B3090FD2253
:100AC600C293D2947F01120B68C292120B64C29336
:100AD600D294120B64C293C294120B64C293D29442
:010AE60022ED
:10093B00E4FEFD120AC6FFEFC39408748094805046
:10094B0013EE25E0FED293C293309405430601804B
:10095B00000F80E3E4FFEFC394087480948050137E
:10096B00EDC313FD3094054305808000D293C293F1
:10097B000F80E3D294D293D292EEB50507753D006A
:10098B00F53E8005E4F53DF53EAE3DAF3E7C007D8A
:10099B00031205808E3D8F3ED3E53E9464E53D64A6
:0B09AB008094804006753D00753E649E
:0109B600221E
:100B2000D2917F02120B68C2917F197E00120A30A7
:070B3000D2917F1E020B6849
:100AA000E4FEFDEDC394087480948050163091FDEF
:100AB0007F08120B68EE25E0FE3091010E2091FDBB
:050AC0000D80E0AF060F
:010AC500220E
:1009B700120B2020915F3091FD7F28120B68120ADD
:1009C700A08F08120AA0A907120AA0AC07120AA052
:1009D700AB07120AA08F0D7F19120B68E9FFE50814
:1009E7002FFFE433FEEC7583002FFFE5833EFEEB1C
:1009F7002FFFE5833EFEE50DB5070EE583B5060936
:100A0700850809890A8C0B8B0C7545008509467585
:050A17003B00850B3CD3
:010A1C0022B7
:10035F0030B0030203F3D20A05227F0C120B54E4D0
:10036F00FDFF120B09750BFF750C07750D767B00E2
:10037F007A00792A12005F120A4E120B05750BFFD5
:10038F00750C07750D87853F0E85400F85411085CC
:10039F0042118543128544137B007A00792A12009B
:1003AF005F120A4E7F0F120B54E522FB7A00640195
:1003BF0070057D01FF8016EB64024A70067D017F98
:1003CF0006800AE522640370097D017F0C120B0978
:1003DF00800AE4F522C20A7F0C120B5430B00302DC
:1003EF00056680F830B1030204AA200A03020566ED
:1003FF00E522640170300540E5407002053F7D0144
:10040F007F02120B09750BFF750C07750D9B853F4E
:10041F000E85400F7B007A00792A12005F120A4E78
:10042F007D01E4FF806AE522640270300542E542F7
:10043F00700205417D017F08120B09750BFF750CCA
:10044F0007750D9B85410E85420F7B007A00792A37
:10045F0012005F120A4E7D017F068034E52264038D
:10046F0070310544E544700205437D017F0E120B88
:10047F0009750BFF750C07750D9B85430E85440F92
:10048F007B007A00792A12005F120A4E7D017F0CE1
:10049F00120B0930B10302056680F830B203020572
:1004AF005E200A03020566E52264017030E54015FF
:1004BF00407002153F7D017F02120B09750BFF750E
:1004CF000C07750D9B853F0E85400F7B007A0079D9
:1004DF002A12005F120A4E7D01E4FF806AE5226452
:1004EF00027030E5421542700215417D017F0812FE
:1004FF000B09750BFF750C07750D9B85410E85421A
:10050F000F7B007A00792A12005F120A4E7D017F5D
:10051F00068034E52264037031E5441544700215FA
:10052F00437D017F0E120B09750BFF750C07750DBF
:10053F009B85430E85440F7B007A00792A12005F5A
:10054F00120A4E7D017F0C120B0920B20A80FB208C
:08055F00B305B20930B3FD221F
:10081300750BFF750C07750D9F7B007A007923120A
:10082300005F300B0FC2A1C2A0750BFF750C0775DB
:100833000DA6806AD2A1D2A0C3E53C9540E53F64F2
:1008430080F8E53B648098400FC2A2C2A0750BFFFD
:10085300750C07750DAD8046D2A2D2A0C3E54695AF
:1008630042E5416480F8E545648098400FC2A3C225
:10087300A5750BFF750C07750DB48022D2A3D2A505
:10088300C3E53E9544E5436480F8E53D64809840C4
:1008930016C2A4C2A0750BFF750C07750DBB7B00B8
:0C08A3007A00792302005FD2A4D2A022C8
:10068000120B37E4FDFF120B09750BFF750C077594
:100690000DC27B007A00792A12005F120A4E120BFB
:1006A00005750BFF750C07750DD37B007A00792A51
:1006B00012005F120A4E7FE87E03120A30750BFFAC
:1006C000750C07750D9F7B007A00792312005FE49B
:1006D000FDFF120B09750BFF750C07750DE47B0010
:1006E0007A00792A12005F120A4E120B05750BFF71
:1006F000750C07750DE47B007A00792A12005F12F1
:100700000A4E120B4B1209B712093B12035F300954
:1007100003120813200AEBE4FDFF120B09750BFF0F
:10072000750C07750D87853B0E853C0F854510853B
:100730004611853D12853E137B007A00792A12000E
:100740005F120A4E120B05300914750BFF750C076A
:10075000750DF5750E00750F007510238009750B6A
:10076000FF750C08750D027B007A00792A12005F74
:06077000120A4E0207020E
:1008BB00020680E493A3F8E493A34003F68001F2CD
:1008CB0008DFF48029E493A3F85407240CC8C3333E
:1008DB00C4540F4420C8834004F456800146F6DF0D
:1008EB00E4800B0102040810204080900AE7E47EAC
:1008FB00019360BCA3FF543F30E509541FFEE49302
:10090B00A360010ECF54C025E060A840B8E493A3C8
:10091B00FAE493A3F8E493A3C8C582C8CAC583CAF3
:10092B00F0A3C8C582C8CAC583CADFE9DEE780BEAB
:010B040000F0
:10056700BB010689828A83E0225002E722BBFE0292
:09057700E32289828A83E49322C5
:10058000C2D5EC30E709B2D5E4C39DFDE49CFCEE96
:1005900030E715B2D5E4C39FFFE49EFE1205F5C314
:1005A000E49DFDE49CFC80031205F530D507C3E40F
:0605B0009FFFE49EFE2205
:10000300E517240BF8E60517227808300702780B6A
:10001300E475F00112064A0205672000EB7F2ED239
:10002300008018EF540F2490D43440D4FF30040BD5
:10003300EF24BFB41A0050032461FFE518600215D2
:1000430018051BE51B7002051A30070D7808E475C7
:10005300F00112064AEF0205E3020A797403D2079C
:100063008003E4C207F5178B088A09890AE4F518A7
:10007300F51AF51BE51860077F2012003E80F57521
:1000830019FFC201C200C202C203C205C206C208EE
:1000930012000CFF700D3007057F0012004FAF1BDD
:1000A300AE1A22B4255FC2D5C20412000CFF24D0BD
:1000B300B40A00501A75F00A781830D50508B6FF4F
:1000C3000106C6A426F620D5047002D20380D924E3
:1000D300CFB41A00EF5004C2E5D20402024FD2019A
:1000E30080C6D20080C0D20280BCD2D580BAD205ED
:1000F30080B47F2012003E2002077401B51800402F
:10010300F1120003FF12003E020077D208D20680EC
:1001130095120003FB120003FA120003F94A4B7015
:100123000679207A037BFF20022EE518602A7E00E1
:100133008E827583001205B660060EEE651970F0A7
:10014300C2D5EBC0E0EAC0E0E9C0E0EE120296D00F
:10015300E0F9D0E0FAD0E0FB120567FF60AAEBC03C
:10016300E0EAC0E0E9C0E012003ED0E02401F9D0AB
:10017300E03400FAD0E0FBE5190460DCD519D9803E
:10018300877BFF7A027992D202809C791080027970
:1001930008C206C2088008D2D5790A8004790AC247
:1001A300D5E519047002F519E4FAFDFEFF12000308
:1001B300FC7B08200113120003FD7B1030000A12A0
:1001C3000003FE120003FF7B20EC3382D592D5504F
:1001D30013C3E43000069FFFE49EFEE42001039D69
:1001E300FDE49CFCE4CBF8C201EC700CCFCECDCC8B
:1001F300E824F8F870F38017C3EF33FFEE33FEED16
:1002030033FDEC33FCEB33FB994002FB0FD8E9EBF6
:10021300300105F8D0E0C448B201C0E00AEC4D4E0D
:100223004F78207B0070C2EAB5190040BCC0E012D1
:100233000298D0F0D0E0200104C4C0E0C4B201C0F1
:10024300F0120027D0F0D5F0EB02007712065A0126
:100253001453018E5800E54C00E14201924F019A7C
:0F02630044019A4900FA4301A0550184460184E1
:100272004501844703405000E92D00ED2E01102B6B
:1002820000F123010E2003292A00A94800000108D9
:100292003F3F3F00790AA2D5200314300509B91067
:1002A200020404B9080104A2D52006025001042068
:1002B20002689202B518005034C0E07F2030031962
:1002C2007F30A20272067205500F1202EFC202C202
:1002D20006C205C2087F30800F300503E9C0E01274
:1002E200003E300503D0E0F9D0E0B518CC30051758
:1002F2007F30B9100C12003E7F583004077F78809F
:1003020003B9080312003E3002057F2D02003E7F32
:10031200202008F87F2B2006F322920280CF286E3D
:10032200756C6C2900D2011200033001F8C2017809
:100332001830D50108F60200A92D50434958120081
:10034200032403B405004001E490033B9312002F01
:0D035200743A12002FD20375180402018EB8
:1005B600BB010CE58229F582E5833AF583E02250FA
:1005C60006E92582F8E622BBFE06E92582F8E22244
:0D05D600E58229F582E5833AF583E493225E
:1005E300BB010689828A83F0225002F722BBFE01F7
:0205F300F322F1
:1005F500BC000BBE0029EF8DF084FFADF022E4CCEA
:10060500F875F008EF2FFFEE33FEEC33FCEE9DECB2
:10061500984005FCEE9DFE0FD5F0E9E4CEFD22EDF8
:10062500F8F5F0EE8420D21CFEADF075F008EF2F42
:10063500FFED33FD4007985006D5F0F222C398FD33
:050645000FD5F0EA22D0
:10064A00FAE6FB0808E6F925F0F618E6CA3AF622B1
:10065A00D083D082F8E4937012740193700DA3A32F
:10066A0093F8740193F5828883E473740293686043
:06067A00EFA3A3A380DF43
:100A7900EFB40A07740D120A84740A309811A89900
:100A8900B8130CC2983098FDA899C298B811F630DD
:070A990099FDC299F59922B5
:00000001FF
