:030000000208AF44
:0C08AF00787FE4F6D8FD7581480208F659
:100776002020202053455454494E47532020202002
:1007860000543A2532642020523A2532642020470C
:100796003A253264002532640020202020202000E3
:1007A60054554D424C450020204649524500204DA7
:1007B6004F544F52002020204741530020202057FD
:1007C600656C636F6D6520746F20202000202020EB
:1007D600202020534241532020202020200020208A
:1007E6002020202020202020202020202020002A19
:1007F600204F4E2020202020202573002A4F4646D9
:0D0806002020202020202020202020200065
:100B0F00C109C10A06410028003C0005C10B023B88
:0D0B1F00001B02470026023D0000012200DD
:100A6B00C2B6C2B58F807F027E00120A7ED2B57FDE
:030A7B00027E00F8
:100A7E00D3EF9400EE940040147D737C00ED1D7056
:0D0A8E00011CED4C70F7EF1F70E61E80E3B9
:010A9B002238
:040B7500D2937F0197
:030B7900DFFE227A
:080B6500C2B7120A6BC2B522EF
:080B6D00D2B7120A6BC2B522D7
:100B48007F38120B657F0C120B657F06120B657FD1
:040B580001020B6526
:040B2D007D01E4FF63
:100B3100AE07ED7005EE24808008ED64017007EECC
:070B410024C0FF120B652226
:060A9C007B007A00792ABC
:100AA2008B088A09890AAB08AA09A90A1205676094
:100AB20013050AE50A7002050914F9120567FF1207
:050AC2000B6D80E22233
:090B5C00209002B20B3090FD2242
:100AEE00C293D2947F01120B79C292120B75C293EC
:100AFE00D294120B75C293C294120B75C293D294F8
:010B0E0022C4
:10093B00E4FEFD120AEEFFEFC3940874809480501E
:10094B0013EE25E0FED293C293309405430601804B
:10095B00000F80E3E4FFEFC394087480948050137E
:10096B00EDC313FD3094054305808000D293C293F1
:10097B000F80E3D294D293D292EEB50507753D006A
:10098B00F53E8005E4F53DF53EAE3DAF3E7C007D8A
:10099B00031205808E3D8F3ED3E53E9464E53D64A6
:0B09AB008094804006753D00753E649E
:0109B600221E
:100A1C00E4F50CC3E50C9408748094805040753F49
:100A2C0002209107AF3F053FEF70F6120000120055
:100A3C0000120000E4F50D309103750D01753F02B5
:100A4C00309107AF3F053FEF70F6E53F6401600E54
:0E0A5C00E54025E0F540E50D4240050C80B573
:010A6A002269
:1009B700C2917F127E00120A7ED2911200001200AD
:1009C70000D29120914E753F02209107AF3F053F1E
:1009D700EF70F6753F02309107AF3F053FEF70F6B6
:1009E700120A1C854008120A1C854009120A1C8538
:1009F700400A120A1C85400B120A1CD291E50825F1
:100A070009250A250BB5400C754700850848753B35
:040A170000850A3C10
:010A1B0022B8
:10035F0030B0030203F3D20A05227F0C120B65E4BF
:10036F00FDFF120B31750BFF750C07750D767B00BA
:10037F007A00792A12005F120A9C120B2D750BFF5F
:10038F00750C07750D8785410E85420F85431085C6
:10039F0044118545128546137B007A00792A120095
:1003AF005F120A9C7F0F120B65E522FB7A00640136
:1003BF0070057D01FF8016EB64024A70067D017F98
:1003CF0006800AE522640370097D017F0C120B3150
:1003DF00800AE4F522C20A7F0C120B6530B00302CB
:1003EF00056680F830B1030204AA200A03020566ED
:1003FF00E522640170300542E542700205417D013E
:10040F007F02120B31750BFF750C07750D9B854124
:10041F000E85420F7B007A00792A12005F120A9C28
:10042F007D01E4FF806AE522640270300544E544F3
:10043F00700205437D017F08120B31750BFF750CA0
:10044F0007750D9B85430E85440F7B007A00792A33
:10045F0012005F120A9C7D017F068034E52264033F
:10046F0070310546E546700205457D017F0E120B82
:10047F0031750BFF750C07750D9B85450E85460F66
:10048F007B007A00792A12005F120A9C7D017F0C93
:10049F00120B3130B10302056680F830B20302054A
:1004AF005E200A03020566E52264017030E54215FD
:1004BF0042700215417D017F02120B31750BFF75E2
:1004CF000C07750D9B85410E85420F7B007A0079D5
:1004DF002A12005F120A9C7D01E4FF806AE5226404
:1004EF00027030E5441544700215437D017F0812F8
:1004FF000B31750BFF750C07750D9B85430E8544EE
:10050F000F7B007A00792A12005F120A9C7D017F0F
:10051F00068034E52264037031E5461546700215F6
:10052F00457D017F0E120B31750BFF750C07750D95
:10053F009B85450E85460F7B007A00792A12005F56
:10054F00120A9C7D017F0C120B3120B20A80FB2016
:08055F00B305B20930B3FD221F
:10081300750BFF750C07750D9F7B007A007923120A
:10082300005F300B0FC2A1C2A0750BFF750C0775DB
:100833000DA6806AD2A1D2A0C3E53C9542E54164EE
:1008430080F8E53B648098400FC2A2C2A0750BFFFD
:10085300750C07750DAD8046D2A2D2A0C3E54895AD
:1008630044E5436480F8E547648098400FC2A3C21F
:10087300A5750BFF750C07750DB48022D2A3D2A505
:10088300C3E53E9546E5456480F8E53D64809840C0
:1008930016C2A4C2A0750BFF750C07750DBB7B00B8
:0C08A3007A00792302005FD2A4D2A022C8
:10068000120B48E4FDFF120B31750BFF750C07755B
:100690000DC27B007A00792A12005F120A9C120BAD
:1006A0002D750BFF750C07750DD37B007A00792A29
:1006B00012005F120A9C7FE87E03120A7E750BFF10
:1006C000750C07750D9F7B007A00792312005FE49B
:1006D000FDFF120B31750BFF750C07750DE47B00E8
:1006E0007A00792A12005F120A9C120B2D750BFFFB
:1006F000750C07750DE47B007A00792A12005F12F1
:100700000A9C120B5C1209B712093B12035F3009F5
:1007100003120813200AEBE4FDFF120B31750BFFE7
:10072000750C07750D87853B0E853C0F8547108539
:100730004811853D12853E137B007A00792A12000C
:100740005F120A9C120B2D300914750BFF750C07F4
:10075000750DF5750E00750F007510238009750B6A
:10076000FF750C08750D027B007A00792A12005F74
:06077000120A9C020702C0
:1008BB00020680E493A3F8E493A34003F68001F2CD
:1008CB0008DFF48029E493A3F85407240CC8C3333E
:1008DB00C4540F4420C8834004F456800146F6DF0D
:1008EB00E4800B0102040810204080900B0FE47E83
:1008FB00019360BCA3FF543F30E509541FFEE49302
:10090B00A360010ECF54C025E060A840B8E493A3C8
:10091B00FAE493A3F8E493A3C8C582C8CAC583CAF3
:10092B00F0A3C8C582C8CAC583CADFE9DEE780BEAB
:010B2C0000C8
:10056700BB010689828A83E0225002E722BBFE0292
:09057700E32289828A83E49322C5
:10058000C2D5EC30E709B2D5E4C39DFDE49CFCEE96
:1005900030E715B2D5E4C39FFFE49EFE1205F5C314
:1005A000E49DFDE49CFC80031205F530D507C3E40F
:0605B0009FFFE49EFE2205
:10000300E517240BF8E60517227808300702780B6A
:10001300E475F00112064A0205672000EB7F2ED239
:10002300008018EF540F2490D43440D4FF30040BD5
:10003300EF24BFB41A0050032461FFE518600215D2
:1000430018051BE51B7002051A30070D7808E475C7
:10005300F00112064AEF0205E3020AC77403D2074E
:100063008003E4C207F5178B088A09890AE4F518A7
:10007300F51AF51BE51860077F2012003E80F57521
:1000830019FFC201C200C202C203C205C206C208EE
:1000930012000CFF700D3007057F0012004FAF1BDD
:1000A300AE1A22B4255FC2D5C20412000CFF24D0BD
:1000B300B40A00501A75F00A781830D50508B6FF4F
:1000C3000106C6A426F620D5047002D20380D924E3
:1000D300CFB41A00EF5004C2E5D20402024FD2019A
:1000E30080C6D20080C0D20280BCD2D580BAD205ED
:1000F30080B47F2012003E2002077401B51800402F
:10010300F1120003FF12003E020077D208D20680EC
:1001130095120003FB120003FA120003F94A4B7015
:100123000679207A037BFF20022EE518602A7E00E1
:100133008E827583001205B660060EEE651970F0A7
:10014300C2D5EBC0E0EAC0E0E9C0E0EE120296D00F
:10015300E0F9D0E0FAD0E0FB120567FF60AAEBC03C
:10016300E0EAC0E0E9C0E012003ED0E02401F9D0AB
:10017300E03400FAD0E0FBE5190460DCD519D9803E
:10018300877BFF7A027992D202809C791080027970
:1001930008C206C2088008D2D5790A8004790AC247
:1001A300D5E519047002F519E4FAFDFEFF12000308
:1001B300FC7B08200113120003FD7B1030000A12A0
:1001C3000003FE120003FF7B20EC3382D592D5504F
:1001D30013C3E43000069FFFE49EFEE42001039D69
:1001E300FDE49CFCE4CBF8C201EC700CCFCECDCC8B
:1001F300E824F8F870F38017C3EF33FFEE33FEED16
:1002030033FDEC33FCEB33FB994002FB0FD8E9EBF6
:10021300300105F8D0E0C448B201C0E00AEC4D4E0D
:100223004F78207B0070C2EAB5190040BCC0E012D1
:100233000298D0F0D0E0200104C4C0E0C4B201C0F1
:10024300F0120027D0F0D5F0EB02007712065A0126
:100253001453018E5800E54C00E14201924F019A7C
:0F02630044019A4900FA4301A0550184460184E1
:100272004501844703405000E92D00ED2E01102B6B
:1002820000F123010E2003292A00A94800000108D9
:100292003F3F3F00790AA2D5200314300509B91067
:1002A200020404B9080104A2D52006025001042068
:1002B20002689202B518005034C0E07F2030031962
:1002C2007F30A20272067205500F1202EFC202C202
:1002D20006C205C2087F30800F300503E9C0E01274
:1002E200003E300503D0E0F9D0E0B518CC30051758
:1002F2007F30B9100C12003E7F583004077F78809F
:1003020003B9080312003E3002057F2D02003E7F32
:10031200202008F87F2B2006F322920280CF286E3D
:10032200756C6C2900D2011200033001F8C2017809
:100332001830D50108F60200A92D50434958120081
:10034200032403B405004001E490033B9312002F01
:0D035200743A12002FD20375180402018EB8
:1005B600BB010CE58229F582E5833AF583E02250FA
:1005C60006E92582F8E622BBFE06E92582F8E22244
:0D05D600E58229F582E5833AF583E493225E
:1005E300BB010689828A83F0225002F722BBFE01F7
:0205F300F322F1
:1005F500BC000BBE0029EF8DF084FFADF022E4CCEA
:10060500F875F008EF2FFFEE33FEEC33FCEE9DECB2
:10061500984005FCEE9DFE0FD5F0E9E4CEFD22EDF8
:10062500F8F5F0EE8420D21CFEADF075F008EF2F42
:10063500FFED33FD4007985006D5F0F222C398FD33
:050645000FD5F0EA22D0
:10064A00FAE6FB0808E6F925F0F618E6CA3AF622B1
:10065A00D083D082F8E4937012740193700DA3A32F
:10066A0093F8740193F5828883E473740293686043
:06067A00EFA3A3A380DF43
:100AC700EFB40A07740D120AD2740A309811A89964
:100AD700B8130CC2983098FDA899C298B811F6308F
:070AE70099FDC299F5992267
:00000001FF
