:03000000020449AE
:0C044900787FE4F6D8FD75811002049065
:10072000202020416E663A3020204F46462020206F
:1007300000546D703A20202020204761733A202019
:1007400020002020476173205365743A2020202028
:100750002020002020546D70205365743A20202002
:0C076000202020004F464600204F4E0095
:03098E00010E0057
:08097F00E4F5E7F5E3F5E422DD
:10089800AD07AC06E4F5E275E78375E5018CE3ED99
:0F08A800F5E475E64675E6B90012097FAFE22266
:1008F400AB07AA0675E78375E5028AE3EBF5E48D99
:0B090400E275E64675E6B90002097FC7
:10090F00AD07AC0675E78375E5038CE3EDF5E4758C
:09091F00E64675E6B90002097F05
:040874007F0A7E0079
:10087800E4FDFCC3ED9FEC9E5015E4FBFA0BBB00B6
:0F088800010AEB64704A70F50DBD00010C80E4AD
:01089700223E
:06093F00120945120945F2
:100945000000000000000000000000000000002280
:10095500C2917FF0DFFED2917F1EDFFEA291B340F0
:05096500FB7F04DFFE32
:01096A00226A
:1007B600E4FEEEC394087480948050367D01A8064A
:1007C600ED088002C333D8FCFDEF5205D3ED94004B
:1007D60074809480400CC291120945D29112093F4F
:1007E600800AC29112093F120945D2911209450E9B
:0207F60080C0C1
:0107F80022DE
:10055C00E4FBFA1209557FCC1207B67F441207B69A
:10056C001209557FCC1207B67FBE1207B6E4FDED1B
:10057C00C39410748094805027C2910000D29112C1
:10058C000945A291E4FE33FF12093FA80508800536
:10059C00C333CE33CED8F9FF4203EE42020D80CFE7
:1005AC00AD03AC02EC1201AEE4FBFA7980783D129B
:0505BC0000030201E74D
:0709870000D29300C293228D
:1005C100E4FFFEC293D29400C292120987D2941220
:1005D1000987C294120987D294FDEDC394087480EF
:1005E10094805012EF25E0FF1209873094054307EC
:1005F1000180000D80E4E4FDEDC3940874809480D3
:100601005012EEC313FE3094054306808000120998
:10061100870D80E400D294D293D292EFB5060122E5
:020621007F0058
:0106230022B4
:10092800C2A7C2A6C2A58F807F027E00120878D215
:07093800A5120878C2A522F8
:0708D600120281EF2430FF44
:1008DD00D2A7C2A6C2A58F807F027E00120878D251
:0708ED00A5120878C2A52244
:10096B007F381209287F0C1209287F061209287F6D
:04097B000102092844
:09084F00AF0D1208247D0DE4FF39
:100858008F0AA905EF7007E92480FF120928E50A25
:0C08680064017007E924C0FF1209282277
:0607F9007BFF7A07796422
:1007FF008B0A8A0B890CAB0AAA0BA90C1202686030
:10080F0013050CE50C7002050B14F9120268FF12A8
:05081F0008DD80E2226B
:10082400A907E975F064842430FF1208DDE975F046
:100834006484E5F075F00A842430FF1208DDE9755C
:0B084400F00A84E5F02430FF0208DD1C
:10067C008E0A8F0BC3E50A6480948050127F2D1272
:10068C0008DDC3E4950BF50BE4950AF50A800BAE77
:10069C000AAF0B7C007D641208D6AE0AAF0B7C004F
:1006AC007D641202817E007F0ACFCDCFCECCCE12DC
:1006BC0008D6AE0AAF0B7C007D0A120281ED243005
:0406CC00FF0208DD44
:1008B700E4FDFF1208587BFF7A0779201207FFE44F
:0F08C700FD7F011208587BFF7A0779310207FF86
:10031A0030B203020448E4FDFF1208587BFF7A0753
:10032A0079421207FFE4FD7F011208587BFF7A0722
:10033A0079531207FF7D0BE4FF120858AF0D12081C
:10034A00247D0B7F01120858AF101208517F0F123B
:10035A00092812087430B2FD7F0A804030B2442066
:10036A00B31ED3E50D9401748094804002150D7D6F
:10037A000BE4FF12085812084F7FFA7E0012087821
:10038A0020B4D9C3E50D9464748094805002050D9D
:10039A007D0BE4FF12085812084F7FFA7E001208FC
:1003AA007880B97D0D7F0112085812087430B2FDA9
:1003BA007F0A806630B26A20B331D3E51094CAE569
:1003CA000F6480947F4008E51015107002150F7DA8
:1003DA000B7F01120858AF10AE0F12067C7D0D7FFD
:1003EA00011208587FFA7E0012087820B4C6C3E5C5
:1003FA0010947DE50F6480948050080510E5107014
:10040A0002050F7D0B7F01120858AF10AE0F1206BE
:10041A007C7D0D7F011208587FFA7E0012087880D1
:10042A00931208B712087430B2FD1208747F007E66
:0F043A002012090FAD0D1208F47F0C12092822B1
:1006240020B55412087430B5FD120874E50E702F0D
:10063400750E017D0AFF1208581207F930B5FDE561
:100644000E7D0A700CFF1208587BFF7A07796480CC
:100654000BE4FF1208587BFF7A0779680207FFE46E
:10066400F50E7D0AFF1208581207F97D07E4FF1200
:0806740008587F301208DD2256
:1006D000E50E64017041EFD3950D4004C2A1800284
:1006E000D2A1D3ED9510E50F6480F8EC64809840BA
:1006F00004C2A28002D2A230900EC2A37D07E4FF02
:100700001208587F311208DD30A30630A20320A161
:1007100003C2A022D2A022D2A3D2A2D2A1D2A022CE
:10076C007F007E201208988F0DEF6009D39464747B
:10077C008094804003750D1E7F017E20120898EF37
:10078C0024C9F510E434FFF50FD3E51094C9E50F37
:10079C006480947F400DD3E510947DE50F648094C4
:0A07AC00804006750F00751028222A
:1004D50012096B1208B712076C12055CEF64554ED2
:1004E50070087F0AFE12087880EF1205C18F08ACEC
:1004F50008E41201B37BCD7ACC790C784012010C5B
:100505001201E78F08D3EF946474809480400375DB
:1005150008647D0D7F01120858AF081208241205E2
:100525005C8F828E837D047F01120858AF82AE8373
:1005350012067CAD82AC83AF081206D0E4F509C380
:10054500E509940F7480948050A012031A120624B2
:07055500120874050980E89B
:10000300EC4D6011E8497017ED33EC3304600DE4F7
:10001300FCFFFEFD22E933E8330470F802025312B9
:10002300021E58046009E4CC2481500628500902BA
:10003300025D28400302025AC0E0EB4A7044B980D3
:1000430006D0E0FB020249EF4E701CBD8008EBFFB7
:10005300EAFEE9FD80EBE98DF0A4FEE5F00200EC99
:10006300E9CDF9EAFEEBFFEF89F0A4FCE5F0CE89D8
:10007300F0A42EFFE435F0CD89F0A42DFEE435F095
:100083008067EF4E7005BD80D780C3EF8BF0A4ACC3
:10009300F0EE8BF0A42CFCE435F0F8EF8AF0A42CFE
:1000A300E5F038FCE433CB8DF0A42CFCE5F03BF811
:1000B300EE8AF0A42CFCE5F038F8E433CF89F0A401
:1000C3002CFCE5F038CF3400CE89F0A42FFFE5F007
:1000D3003EFEE433C98DF0A42EFEE5F039CD8AF05F
:1000E300A42FFFE5F03EFEE43DFD33D0E0FB5007D7
:1000F3000BBB000F02025DEC2CFCEF33FFEE33FE73
:06010300ED33FD020235A0
:1001090002025DEC5D046005E859047003020253C4
:1001190012021E580460F6EC4860F2EC7004FDFE11
:10012900FF22C860DB2481C85009C39860025006C9
:1001390002025A9850CAF582E9294B4A7005AB82E6
:1001490002024975F0007C1A7880C3EF9BEE9AEDA4
:1001590099400DC3EF9BFFEE9AFEED99FDE842F041
:10016900DC23ACF0D0E0FFD0E0FED0E0FDAB822094
:10017900E7101BEB60BAEC2CFCEF33FFEE33FEED1E
:1001890033FD020235E803F830E705C0F075F000E9
:10019900EF2FFFEE33FEED33FD40B830E7C280AA02
:1001A90075F020800E75F010800575F0087D007ED1
:1001B900007F003392D530D5031202B7EC334010DB
:1001C900EF33FFEE33FEED33FDEC33FCD5F0ED22DA
:0E01D900E5F0247EA2D513CC92E7CDCEFF2216
:1001E700EDD2E7CD33EC3392D524814006E4FFFE10
:1001F700FDFC22FCE4CFCECDCC24E0501174FF806F
:10020700EDC3CC13CCCD13CDCE13CECF13CF04700B
:07021700F030D5DE0202B752
:10021E00E9D2E7C933E833F892D5EDD2E7CD33EC26
:07022E0033FC5002B2D5229F
:10023500EC30E7100FBF000C0EBE00080DBD00042A
:100245000BEB6014A2D5EB13FCED92E7FD2274FFD6
:10025500FCFDFEFF22E480F8A2D574FF13FC7D802F
:03026500E480EF43
:100455000204D5E493A3F8E493A34003F68001F2E4
:1004650008DFF48029E493A3F85407240CC8C333A8
:10047500C4540F4420C8834004F456800146F6DF77
:10048500E4800B010204081020408090098EE47E70
:10049500019360BCA3FF543F30E509541FFEE4936C
:1004A500A360010ECF54C025E060A840B8E493A333
:1004B500FAE493A3F8E493A3C8C582C8CAC583CA5E
:1004C500F0A3C8C582C8CAC583CADFE9DEE780BE16
:010991000065
:10026800BB010689828A83E0225002E722BBFE0294
:09027800E32289828A83E49322C7
:10028100C2D5EC30E709B2D5E4C39DFDE49CFCEE98
:1002910030E715B2D5E4C39FFFE49EFE1202C5C349
:1002A100E49DFDE49CFC80031202C530D507C3E444
:0602B1009FFFE49EFE2207
:0E02B700C3E49FFFE49EFEE49DFDE49CFC2258
:1002C500BC000BBE0029EF8DF084FFADF022E4CC1D
:1002D500F875F008EF2FFFEE33FEEC33FCEE9DECE6
:1002E500984005FCEE9DFE0FD5F0E9E4CEFD22ED2C
:1002F500F8F5F0EE8420D21CFEADF075F008EF2F76
:10030500FFED33FD4007985006D5F0F222C398FD66
:050315000FD5F0EA2203
:00000001FF
